:020000040C00EE
:100000000008001001020008B1020008B102000857
:10001000B1020008B1020008B102000800000000AF
:10002000000000000000000000000000B102000815
:10003000B102000800000000B1020008B10200088F
:10004000B1020008B1020008B1020008B1020008C4
:10005000B1020008B1020008B1020008B1020008B4
:10006000B1020008000000000000000000000000D5
:10007000B102000800000000B1020008B10200084F
:10008000B1020008B1020008B1020008B102000884
:10009000B1020008B1020008B1020008B102000874
:1000A000B1020008B1020008B1020008B102000864
:1000B000B1020008B1020008B1020008B102000854
:1000C000B1020008B1020008B1020008B102000844
:1000D000B1020008B1020008B1020008B102000834
:1000E000B1020008B1020008B1020008B102000824
:1000F000B1020008B1020008B1020008B102000814
:10010000B1020008B1020008B1020008B102000803
:10011000B1020008B1020008B1020008B1020008F3
:10012000B1020008B1020008B1020008B1020008E3
:10013000B1020008B1020008B1020008B1020008D3
:10014000B1020008B1020008B1020008B1020008C3
:10015000B1020008B1020008B1020008B1020008B3
:10016000000000000000000000000000000000008F
:10017000B1020008B1020008B1020008B102000893
:10018000B1020008B1020008B1020008B102000883
:10019000B1020008B1020008B1020008B102000873
:1001A000B1020008B1020008350F0008290F00084D
:1001B000B1020008B1020008B1020008B102000853
:1001C000B1020008B1020008B1020008B102000843
:1001D000B1020008B1020008B102000800000000EE
:1001E000B1020008B1020008B1020008B102000823
:1001F000B102000800000000B10200080000000089
:10020000DFF88CD023488047234C244DAC4209DAD8
:1002100021686268A368043BA2BFC858D050FAE7BF
:100220000C34F3E71E4B1F4CA34208DA19685A68D6
:100230000020043AA4BF8850FBE70833F4E71A48CB
:1002400080471A48804700002C13000C0000002053
:10025000B8000000E413000C0000003000000000B3
:100260002C13000C00080010000000002C13000CE0
:100270000008001000000000B8000020200000006E
:100280000000003000000000000800100000000026
:10029000000800103D03000848020008780200082A
:1002A00078020008900200080D120008C51100082D
:1002B000FEE700001D4BDB68D90310B525D51C4BAC
:1002C000DA6812F0010F1C4602D100F021FF00E0B5
:1002D00018482268164B520710D59A6899689B688F
:1002E000C2F30362C3F30644531C04FB0333B0FBA5
:1002F000F3F0C1F3062303FB000007E09B6803F063
:100300007F030133B0FBF3F000E00A48074AD368EB
:10031000DBB20133B0FBF3F0136903F001030133E7
:10032000B0FBF3F0044B186010BD00BF0046005056
:100330001047005000366E01C0FF002038B5094A52
:10034000094D4FF00054234603CBAB42106051607F
:100350001C4602F10802F6D100F09AFE00F0DCFE25
:1003600038BD00BFC4FF00201000002001F0FC03D6
:100370000344F0B501F003041E69E400F825A5402C
:1003800026EA05051D61466F4F000325BD4026EA9C
:1003900005054567164DA84203D005F58075A842AE
:1003A00007D1056E012606FA01F125EA0101016671
:1003B00018E092F90050002D14DA55688D40456020
:1003C000CD0800EB850001F00701066C89000725C8
:1003D0008D4026EA05050564167A056C06FA01F1DA
:1003E0002943016412781969A2400A431A61F0BDD9
:1003F000008E024810B50446FFF75CFF064B074825
:100400001B68B3FBF0F303FB04F00023834202D02C
:1004100000BF0133FAE710BDC0FF002040420F00CB
:10042000020F0C235343024A20F07040985070474B
:100430001444005020F070420C23000F584303F185
:10044000A04303F58843C3581A4214BF012000207B
:1004500070470000034B044A5B69106803F0010316
:10046000D840704700460050C0FF0020034AD368C0
:1004700023F480331843D060704700BF004600501B
:10048000034A936923F4803318439061704700BF97
:1004900000460050034A536A23F440331843506225
:1004A000704700BF00460050064AD36820B923F4C5
:1004B000807323F0010303E043F4807343F00103EE
:1004C000D360704710470050054BD3F8C4301B076A
:1004D000FAD4044AD36823F040031843D06070472D
:1004E0000040005000430050054BD3F8C4301B07B8
:1004F000FAD4044AD36823F080031843D0607047CD
:100500000040005000430050034AD368013823F0F4
:10051000FF030343D360704700460050034A136A49
:10052000013823F001030343136270470046005073
:10053000034A1369013823F0010303431361704731
:1005400000460050034A5369013823F00103034376
:100550005361704700460050034A9369013823F005
:10056000070303439361704700460050034AD36971
:10057000013823F03F030343D36170470046005026
:10058000034A536A013823F0FF0303435362704761
:1005900000460050014B5860704700BF00460050B5
:1005A0000F4B5A6942F001025A615A690138013908
:1005B000000642F0100240EA01215A6159615A696D
:1005C00042F040025A615A6922F010025A615A6997
:1005D00042F480225A611A695207FCD5704700BF65
:1005E0001047005010B50B4C6368012843F480138A
:1005F00063600AD1636823F4801363606420FFF7AB
:10060000F9FE636843F4002363606420BDE8104092
:10061000FFF7F0BE104700500A4B1A68D20704D506
:10062000094B1A68900506D4704701225A601A686F
:10063000D107FCD5F4E74FF400729A601A6892056E
:10064000FCD470470042005000440050034B18682F
:1006500080F00800C0F3C000704700BF00430050A6
:10066000104B4FF40002DA600F4AD16921F03001DB
:10067000D16159680802FCD50A494FF40030C860BE
:10068000082151605A689103FCD5064A4FF40021B5
:10069000D1600549CA6842F00802CA605A6812036C
:1006A000FCD57047744000500043005070B50C4DAD
:1006B0000C4E6B6823F480336B60746800F028FD87
:1006C000094BB0FBF3F024F47023013823F030031E
:1006D00043EA004373606B6823F400336B6070BDC2
:1006E0001047005000470050A0252600044B186812
:1006F00000F46070A0F5607358425841704700BF25
:1007000010470050034A536823F4803323F0020358
:100710005360704710470050034A536843F48033D6
:1007200043F002035360704710470050054A936836
:10073000013823F4FE0343EA004393603220FFF7BD
:1007400059BE00BF104700502DE9F0410C46054648
:1007500090461F46069EFFF7A7FE012C314C52D152
:1007600035B900F0D5FC304DB0FBF5F0800501E067
:100770004FF0C060636843F001036360636843F057
:1007800010036360A168294B08F1FF320B4043EA74
:1007900002637A1E43EA022278431823B0FBF8F57D
:1007A000B5FBF3F39B0D013B42EA0343A36063688F
:1007B00043F040036360636823F010036360636881
:1007C00043F4802363602368164A5907FBD55368B6
:1007D00023F0010353602368DA07FCD43C20B5FB07
:1007E000F0F0800D864201D2FFF7A0FF5A20B5FB42
:1007F000F0F0800D864201D2FFF798FF3046BDE849
:10080000F041FFF793BFA368013E23F07F031E432F
:10081000A660636843F0010363602368DB07FCD5CF
:10082000BDE8F0811047005040420F00FF8080F08B
:1008300037B504460020FFF719FEFFF7EDFEE37918
:100840001BB9607AFFF750FE06E0FFF709FFFFF7DC
:10085000FDFE0028FBD0F4E71B4BD3F8C430002B7F
:10086000FAD1207AFFF7BEFE207CFFF74DFE607CB8
:10087000FFF75EFEA07CFFF751FEE07CFFF762FE13
:10088000A37923B9E3784BB9FFF746FF10E0FFF7F0
:100890000DFFFFF72BFF0028FBD0F3E7FFF732FF38
:1008A000A578A088E178627823780095FFF74CFF5F
:1008B000E068B0F5803F01D1FFF7D8FD03B0BDE897
:1008C0003040FFF7F7BC00BF0040005010B50446B1
:1008D0001020FFF75FFE0C4B9C4201D104200DE07D
:1008E0000A4B9C4201D1082008E0094B9C4201D1EF
:1008F000102003E0074B9C4204D10748BDE810409C
:10090000FFF78EBD10BD00BF00C0004000000140D9
:1009100000400140004000480100001038B5044686
:100920000D46FFF7D3FF4FF48073E360236823F491
:10093000404343EA8531216038BD0B6843614B7900
:10094000C3F340131B0543600B7903F00F034362AD
:100950004B7903F00F0303624B79C3F300138361F8
:100960000B791B09C3627047092930B59CBF094C3C
:10097000094DD0F8A83099BF645C35F811104FF4D8
:1009800040510C2423EA0103A2401A43C0F8A820D6
:1009900030BD00BF5C1200086612000870B50E463C
:1009A000044600F06BF9357A33793168002D08BFC1
:1009B000102520462A4613B100F08CF801E000F023
:1009C0004BF8F379013B5B0043F440336D0843F08F
:1009D0000103013543EA0523E3637379013B1B06F9
:1009E00043F481736363B379626B03B97379013B39
:1009F00042EA034363634FF4A063A3634FF0FF3302
:100A0000E3647389236470BDD0F8083113F0E06F9C
:100A100008D1836B1B06FCD44FF40053C364C0F8A9
:100A200080107047C0F880117047D0F80C3113F077
:100A3000E06F0CBF406DD0F81C0180B27047000021
:100A400008B50448FFF7ECFC0248FFF7F3FC002868
:100A5000FAD108BD8000001063292DE9F041054658
:100A60000C46164630D97AB3FFF7F4FC642140F205
:100A7000FF3CB0FBF1FEB4FBF1F401217443CEEB7B
:100A80008E270A466046B7FBF4F34FEA9328B8F581
:100A9000806F06D2C3F3090363453EBF9C464146BF
:100AA00002460138CEEB0707EDD142F400422A613D
:100AB0006A69074B013E134043EA8623013943EA42
:100AC00001436B61BDE8F0810120BDE8F08100BF0A
:100AD000EF8000FC2DE9F0410F4690460546FFF7F8
:100AE000B9FC08FB07F2904237D9B0FBF2F3510092
:100AF000012640F2FE34A34204D9B0FBF1F30136E3
:100B00001144F6E75A1C08FB06F403FB06F15443B4
:100B1000B0FBF4F43C1B002C08FB01F1B0FBF1F03E
:100B2000A7EB0007B8BF6442002FB8BF7F42BC42AA
:100B3000B8BF1346C3F5806343F480432B616A69F1
:100B4000074B08F1FF38134043EA8823013E43EA8C
:100B500006436B610020BDE8F0810120BDE8F08113
:100B6000EF8000FC30B5D0F8084124F0E064C0F814
:100B70000841D0F80851054C2C40214341EA02625B
:100B800042EA0323C0F8083130BD00BFC0C0FFF8FF
:100B900030B5D0F80C4124F0E064C0F80C41D0F836
:100BA0000C51064C2C4044F08054214341EA02622F
:100BB00042EA0323C0F80C3130BD00BFC0C0FFEFD4
:100BC000D0F80C3123F0E063C0F80C31D0F80C31D0
:100BD000090641EA022223F47C531343C0F80C3186
:100BE000704710B5072384698B4024EA03038A40C9
:100BF0001A43826110BD10B50723D0F808418B401D
:100C000024EA03038A401A43C0F8082110BD10B536
:100C10000723D0F80C418B4024EA03038A401A438F
:100C2000C0F80C2110BD000008B5104B98420AD145
:100C30004FF40060FFF7F4FB4FF40060FFF7FAFB9E
:100C40000028F9D108BD0A4B984203D1BDE80840FD
:100C5000FFF7F6BE074B984207D10748FFF7E0FBC6
:100C60000548FFF7E7FB0028FAD108BD080003405C
:100C7000080002480840024800010010144B984246
:100C800010B5044603D003F50073984201D1114812
:100C900011E0114B984203D003F50073984202D142
:100CA000FFF7CEFE09E00D4B984203D003F5007329
:100CB000984202D10A48FFF7B7FF0323E360E368D5
:100CC000DB07FCD5236C23F00F03236410BD00BFAA
:100CD00000000340080003400000024800400248B2
:100CE0000840024870474368006893F82C3001229E
:100CF0009A40914234BF01F1FF3202F1FF321946AE
:100D0000FFF75EBF43685B68184770B58468E368A7
:100D1000A268934205461ED2426892F82B208AB1FF
:100D20002868D0F81431DE040BD4E368A26893423B
:100D300030D22268D15CFFF767FEE3680133E360DD
:100D4000EEE770BD22680068D15CFFF75DFEE368E6
:100D50000133E36070BD0368D3F81421110519D580
:100D6000416891F82B2032B1D3F8082122F080425B
:100D7000C3F8082103E01A6C22F400521A649A6B3B
:100D80001206FCD40023237623608B6813B1BDE8E0
:100D90007040184770BD436893F82C302DE9F0413E
:100DA0000546846853B32868D0F814311B071BD458
:100DB000666923699E4206D26768FFF736FEB8551A
:100DC000636901336361626923699A42EBD100234D
:100DD0002A686376D2F80C3123F0C043C2F80C3194
:100DE0006B68DB6803B19847636921698B4222D243
:100DF0002846C91ABDE8F041FFF775BF6669236947
:100E00009E4207D200686768FFF70FFEB855636916
:100E100001336361626923699A420CD100232A6815
:100E20006376136C23F4404313646B68DB6813B17F
:100E3000BDE8F0411847BDE8F08100F00700C0F1BF
:100E40000702062A28BF062200B101380123934079
:100E5000013B03FA00F0704738B52C4D2C4C2D4A5D
:100E600028460021FFF782FA20462B49FFF796FD1E
:100E7000E36923F0070343F00303E36120461021F5
:100E800004220123FFF76EFE002120460B460422B8
:100E9000FFF77EFE236C214A23F00F0343F0020389
:100EA000236428460121FFF761FA2046102102221F
:100EB000FFF797FE204610210122FFF79CFE184DF8
:100EC000204610210022FFF7A2FE13210022204617
:100ED000FFF79DFEE868134CC0F30220FFF7ADFF5B
:100EE00080004FF00063C0B284F85B03A360E86841
:100EF000C0F30220FFF7A1FF8000C0B284F85A03BC
:100F00004FF08063A360002038BD00BF008002481E
:100F100000020248AC120008D0120008C4120008F7
:100F200000ED00E000E100E00148FFF7EEBE00BF89
:100F3000000000200148FFF72EBF00BF0000002086
:100F400090F8303010B5044663B18268D2F8A4300E
:100F500043F00103C2F8A430806894F82A200021ED
:100F6000FFF702FD94F8313073B1A268D2F8A430D3
:100F700043F00403C2F8A430A06894F82B200221A7
:100F8000BDE81040FFF7F0BC10BD90F8293013F019
:100F9000FB0F0BD190F82E104268012303FA01F1E8
:100FA000D1608268D360032380F82930704790F8BD
:100FB0002930022B10B515D042F21072914211D88F
:100FC000C4690162C1F51C53103304FB0333B3FB46
:100FD000F2F3826883619BB2D3634368426A1A6109
:100FE000002010BD012010BD90F828300BB9FFF78C
:100FF000CCBF704770B590F82960022E044626D108
:10100000006800F035F80546F0B9E168A068FFF720
:1010100094FCA368A28B5A63A368228BDA6363688B
:10102000626A1A612046FFF78BFF206994F82C1042
:101030006269FFF79BF994F82F3084F829503BB18F
:101040002046FFF7D1FF03E084F8296000E0012586
:10105000284670BD90F828300BB9FFF7CBBF0120B0
:10106000704790F828300BB9FFF7A1BF01207047F7
:10107000437B10B504464BB98068217BFFF74EFCDB
:10108000A3684FF48072DA6001236373002010BDFF
:10109000194B1A4AD96821F4E0610904090C0A4382
:1010A000DA6072B6164A9A60BFF34F8F62B6D3F811
:1010B0008820144842F4700241F21401C3F88820D9
:1010C000425822F00F0242F0030242505A6922F0C5
:1010D00010025A615A6922F008025A615A6A22F4CF
:1010E00080325A625A6A22F400325A625A6A22F4F0
:1010F00080225A62704700BF00ED00E00001FA054F
:101100000000000800100058012303700020704701
:1011100000487047001BB70030B5114D0FCD87B0A8
:1011200001AC0FC42B68236001A8FFF781FB0020EE
:10113000FFF7CAF90020FFF7A3F90420FFF70CFA24
:1011400020210120FFF72CFA0020FFF7A3F901204E
:10115000FFF716FA0120FFF709FA07B030BD00BF0C
:101160001813000808B50B48FFF7CEFF80B90A48EE
:10117000FFF770FF60B90948FFF7C4FD40B90848A0
:10118000FFF768FF20B90748BDE80840FFF762BFD6
:1011900008BD00BFD4000020740000200000002023
:1011A0000C000020400000200023834206DA044A9D
:1011B000013A01D000BFFBE70133F6E7704700BFFB
:1011C000C1D4010010B5FFF7CDFFD0B1FEE7214635
:1011D0000D48FFF746FF1420FFF7E6FF0A3440F200
:1011E00024439C42F3D140F2194421460648FFF7BC
:1011F00038FF1420FFF7D8FF0A3C40F2C1139C428D
:10120000F3D14FF4E174E2E77400002070B50F4EA3
:101210000F4D761BB61018BF002405D0013455F8C9
:10122000043B9847A642F9D10A4E0B4D761BFFF7B7
:1012300059FDB61018BF002406D0013455F8043B00
:101240009847A642F9D170BD70BD00BFB80000201C
:10125000B8000020B8000020B80000200000020202
:101260000C0C0C0C080A030003000C000C000030EE
:101270000030003000300003000C0000D0120008E5
:10128000590E0008000000000000000000000000EF
:10129000000000000000000000000000000000004E
:1012A000B812000800000004040100000000000063
:1012B0000100000002000000008002480100000060
:1012C000C4120008900000000100000002000000AD
:1012D000004B000000080801100000039800000007
:1012E00000000100040000000000000006000000F3
:1012F0009800000000000100040000000000000051
:10130000060000009800000000000100040000003A
:10131000000000000600000050020401000001006F
:0C132000000000000000010001010101BC
:10132C00000202487C120008B8000020A80000202F
:10133C0000400140004401401013000800830248A3
:10134C00DC1200083E4900007B920000881300006C
:10135C000050000000020000030203000000000027
:10136C00A80000200040014000430140E8120008A2
:10137C0000830248041300083E4900007B920000E1
:10138C0088130000000500000002000004020200A7
:10139C0000000000A8000020004001400041014076
:1013AC00FC12000800830248F01200083E490000BD
:1013BC007B92000088130000050000000002000072
:1013CC000002000100000000000E270704000000CE
:0813DC00004001400000000088
:0400000508000201EC
:00000001FF
