:020000040C00EE
:100000000008001001020008B1020008B102000857
:10001000B1020008B1020008B102000800000000AF
:10002000000000000000000000000000B102000815
:10003000B102000800000000B1020008B10200088F
:10004000B1020008B1020008B1020008B1020008C4
:10005000B1020008B1020008B1020008B1020008B4
:10006000B1020008000000000000000000000000D5
:10007000B102000800000000B1020008B10200084F
:10008000B1020008B1020008B1020008B102000884
:10009000B1020008B1020008B1020008B102000874
:1000A000B1020008B1020008B1020008B102000864
:1000B000B1020008B1020008B1020008B102000854
:1000C000B1020008B1020008B1020008B102000844
:1000D000B1020008B1020008B1020008B102000834
:1000E000B1020008B1020008B1020008B102000824
:1000F000B1020008B1020008B1020008B102000814
:10010000B1020008B1020008B1020008B102000803
:10011000B1020008B1020008B1020008B1020008F3
:10012000B1020008B1020008B1020008B1020008E3
:10013000B1020008B1020008B1020008B1020008D3
:10014000B1020008B1020008B1020008B1020008C3
:10015000B1020008B1020008B1020008B1020008B3
:10016000000000000000000000000000000000008F
:10017000B1020008B1020008B1020008B102000893
:10018000B1020008B1020008B1020008B102000883
:10019000B1020008B1020008B1020008B102000873
:1001A000B102000859150008B1020008B1020008A8
:1001B000B1020008B1020008B1020008B102000853
:1001C000B1020008B1020008B1020008B102000843
:1001D000B1020008B1020008B102000800000000EE
:1001E000B1020008B1020008B1020008B102000823
:1001F000B102000800000000B10200080000000089
:10020000DFF88CD023488047234C244DAC4209DAD8
:1002100021686268A368043BA2BFC858D050FAE7BF
:100220000C34F3E71E4B1F4CA34208DA19685A68D6
:100230000020043AA4BF8850FBE70833F4E71A48CB
:1002400080471A4880470000D817000C00000020A3
:10025000400100001819000C0000003000000000F0
:10026000D817000C0008001000000000D817000C80
:1002700000080010000000004001002028040000D9
:100280000000003000000000000800100000000026
:10029000000800103D03000848020008780200082A
:1002A000780200089002000891150008ED1400087B
:1002B000FEE700001D4BDB68D90310B525D51C4BAC
:1002C000DA6812F0010F1C4602D100F0F7FF00E0DF
:1002D00018482268164B520710D59A6899689B688F
:1002E000C2F30362C3F30644531C04FB0333B0FBA5
:1002F000F3F0C1F3062303FB000007E09B6803F063
:100300007F030133B0FBF3F000E00A48074AD368EB
:10031000DBB20133B0FBF3F0136903F001030133E7
:10032000B0FBF3F0044B186010BD00BF0046005056
:100330001047005000366E01C0FF002038B5094A52
:10034000094D4FF00054234603CBAB42106051607F
:100350001C4602F10802F6D100F070FF00F0B2FF77
:1003600038BD00BFC4FF00201000002001F0FC03D6
:100370000344F0B501F003041E69E400F825A5402C
:1003800026EA05051D61466F4F000325BD4026EA9C
:1003900005054567164DA84203D005F58075A842AE
:1003A00007D1056E012606FA01F125EA0101016671
:1003B00018E092F90050002D14DA55688D40456020
:1003C000CD0800EB850001F00701066C89000725C8
:1003D0008D4026EA05050564167A056C06FA01F1DA
:1003E0002943016412781969A2400A431A61F0BDD9
:1003F000008E024810B50446FFF75CFF064B074825
:100400001B68B3FBF0F303FB04F00023834202D02C
:1004100000BF0133FAE710BDC0FF002040420F00CB
:10042000020F0C235343024A20F07040985070474B
:100430001444005020F070420C23000F584303F185
:10044000A04303F58843C3581A4214BF012000207B
:1004500070470000034B044A5B69106803F0010316
:10046000D840704700460050C0FF0020034AD368C0
:1004700023F480331843D060704700BF004600501B
:10048000034A936923F4803318439061704700BF97
:1004900000460050034A536A23F440331843506225
:1004A000704700BF00460050064AD36820B923F4C5
:1004B000807323F0010303E043F4807343F00103EE
:1004C000D360704710470050054BD3F8C4301B076A
:1004D000FAD4044AD36823F040031843D06070472D
:1004E0000040005000430050054BD3F8C4301B07B8
:1004F000FAD4044AD36823F080031843D0607047CD
:100500000040005000430050034AD368013823F0F4
:10051000FF030343D360704700460050034A136A49
:10052000013823F001030343136270470046005073
:10053000034A1369013823F0010303431361704731
:1005400000460050034A5369013823F00103034376
:100550005361704700460050034A9369013823F005
:10056000070303439361704700460050034AD36971
:10057000013823F03F030343D36170470046005026
:10058000034A536A013823F0FF0303435362704761
:1005900000460050014B5860704700BF00460050B5
:1005A0000F4B5A6942F001025A615A690138013908
:1005B000000642F0100240EA01215A6159615A696D
:1005C00042F040025A615A6922F010025A615A6997
:1005D00042F480225A611A695207FCD5704700BF65
:1005E0001047005010B50B4C6368012843F480138A
:1005F00063600AD1636823F4801363606420FFF7AB
:10060000F9FE636843F4002363606420BDE8104092
:10061000FFF7F0BE104700500A4B1A68D20704D506
:10062000094B1A68900506D4704701225A601A686F
:10063000D107FCD5F4E74FF400729A601A6892056E
:10064000FCD470470042005000440050034B18682F
:1006500080F00800C0F3C000704700BF00430050A6
:10066000104B4FF40002DA600F4AD16921F03001DB
:10067000D16159680802FCD50A494FF40030C860BE
:10068000082151605A689103FCD5064A4FF40021B5
:10069000D1600549CA6842F00802CA605A6812036C
:1006A000FCD57047744000500043005070B50C4DAD
:1006B0000C4E6B6823F480336B60746800F0FEFDB1
:1006C000094BB0FBF3F024F47023013823F030031E
:1006D00043EA004373606B6823F400336B6070BDC2
:1006E0001047005000470050A0252600044B186812
:1006F00000F46070A0F5607358425841704700BF25
:1007000010470050034A536823F4803323F0020358
:100710005360704710470050034A536843F48033D6
:1007200043F002035360704710470050054A936836
:10073000013823F4FE0343EA004393603220FFF7BD
:1007400059BE00BF104700502DE9F0410C46054648
:1007500090461F46069EFFF7A7FE012C314C52D152
:1007600035B900F0ABFD304DB0FBF5F0800501E090
:100770004FF0C060636843F001036360636843F057
:1007800010036360A168294B08F1FF320B4043EA74
:1007900002637A1E43EA022278431823B0FBF8F57D
:1007A000B5FBF3F39B0D013B42EA0343A36063688F
:1007B00043F040036360636823F010036360636881
:1007C00043F4802363602368164A5907FBD55368B6
:1007D00023F0010353602368DA07FCD43C20B5FB07
:1007E000F0F0800D864201D2FFF7A0FF5A20B5FB42
:1007F000F0F0800D864201D2FFF798FF3046BDE849
:10080000F041FFF793BFA368013E23F07F031E432F
:10081000A660636843F0010363602368DB07FCD5CF
:10082000BDE8F0811047005040420F00FF8080F08B
:1008300037B504460020FFF719FEFFF7EDFEE37918
:100840001BB9607AFFF750FE06E0FFF709FFFFF7DC
:10085000FDFE0028FBD0F4E71B4BD3F8C430002B7F
:10086000FAD1207AFFF7BEFE207CFFF74DFE607CB8
:10087000FFF75EFEA07CFFF751FEE07CFFF762FE13
:10088000A37923B9E3784BB9FFF746FF10E0FFF7F0
:100890000DFFFFF72BFF0028FBD0F3E7FFF732FF38
:1008A000A578A088E178627823780095FFF74CFF5F
:1008B000E068B0F5803F01D1FFF7D8FD03B0BDE897
:1008C0003040FFF7F7BC00BF0040005010B50446B1
:1008D0001020FFF75FFE0C4B9C4201D104200DE07D
:1008E0000A4B9C4201D1082008E0094B9C4201D1EF
:1008F000102003E0074B9C4204D10748BDE810409C
:10090000FFF78EBD10BD00BF00C0004000000140D9
:1009100000400140004000480100001038B5044686
:100920000D46FFF7D3FF4FF48073E360236823F491
:10093000404343EA8531216038BD0B6843614B7900
:10094000C3F340131B0543600B7903F00F034362AD
:100950004B7903F00F0303624B79C3F300138361F8
:100960000B791B09C3627047092930B59CBF094C3C
:10097000094DD0F8A83099BF645C35F811104FF4D8
:1009800040510C2423EA0103A2401A43C0F8A820D6
:1009900030BD00BF7C1600088616000870B50E46F4
:1009A000044600F013F9357A33793168002D08BF19
:1009B000102520462A4613B100F08CF801E000F023
:1009C0004BF8F379013B5B0043F440336D0843F08F
:1009D0000103013543EA0523E3637379013B1B06F9
:1009E00043F481736363B379626B03B97379013B39
:1009F00042EA034363634FF4A063A3634FF0FF3302
:100A0000E3647389236470BDD0F8083113F0E06F9C
:100A100008D1836B1B06FCD44FF40053C364C0F8A9
:100A200080107047C0F880117047D0F80C3113F077
:100A3000E06F0CBF406DD0F81C0180B27047000021
:100A400008B50448FFF7ECFC0248FFF7F3FC002868
:100A5000FAD108BD8000001063292DE9F041054658
:100A60000C46164630D97AB3FFF7F4FC642140F205
:100A7000FF3CB0FBF1FEB4FBF1F401217443CEEB7B
:100A80008E270A466046B7FBF4F34FEA9328B8F581
:100A9000806F06D2C3F3090363453EBF9C464146BF
:100AA00002460138CEEB0707EDD142F400422A613D
:100AB0006A69074B013E134043EA8623013943EA42
:100AC00001436B61BDE8F0810120BDE8F08100BF0A
:100AD000EF8000FC2DE9F0410F4690460546FFF7F8
:100AE000B9FC08FB07F2904237D9B0FBF2F3510092
:100AF000012640F2FE34A34204D9B0FBF1F30136E3
:100B00001144F6E75A1C08FB06F403FB06F15443B4
:100B1000B0FBF4F43C1B002C08FB01F1B0FBF1F03E
:100B2000A7EB0007B8BF6442002FB8BF7F42BC42AA
:100B3000B8BF1346C3F5806343F480432B616A69F1
:100B4000074B08F1FF38134043EA8823013E43EA8C
:100B500006436B610020BDE8F0810120BDE8F08113
:100B6000EF8000FC10B5072384698B4024EA03035F
:100B70008A401A43826110BD08B5104B98420AD1D1
:100B80004FF40060FFF74CFC4FF40060FFF752FC9D
:100B90000028F9D108BD0A4B984203D1BDE80840AE
:100BA000FFF74EBF074B984207D10748FFF738FCC5
:100BB0000548FFF73FFC0028FAD108BD08000340B4
:100BC000080002480840024800010010144B9842F7
:100BD00010B5044603D003F50073984201D11148C3
:100BE00011E0114B984203D003F50073984202D1F3
:100BF000FFF726FF09E00D4B984203D003F5007381
:100C0000984202D10A48FFF7B7FF0323E360E36885
:100C1000DB07FCD5236C23F00F03236410BD00BF5A
:100C20000000034008000340000002480040024862
:100C3000084002480120FFF7F3BB38B50D460446D3
:100C4000FFF7F8FF6B6923606B6843F40043C4F857
:100C50008030AB68C4F8A030EB68C4F8A4302B69CE
:100C6000C4F880322B68C4F8B83038BD283312B9C4
:100C700040F21F7200E0024A0A4040F82320704709
:100C800000001F07D0F8803043F00043C0F88030E8
:100C90000023094A52F82320D2F8801011F4403F73
:100CA00005D0D2F88010C90001D500BFF9E70133A3
:100CB000042BEED1704700BF9C160008D0F84031DD
:100CC00023F00F03C0F840310329D0F8403188BF2A
:100CD00004391943C0F840117047F0B542B901F02A
:100CE0001F051F26C1F302214FF4E06E082709E01B
:100CF000C1F304454FF4F816C1F302614FF0E06E02
:100D00001022182700EB8303B940D3F8A04024EA4F
:100D10000E04214321EA060195402943C3F8A0109F
:100D2000F0BDF8B500220C46054613464968FFF7AA
:100D3000D4FF2846616801220023FFF7CEFF284632
:100D4000A16800220123FFF7C8FF012213462846AD
:100D5000A168FFF7C2FFA0782369C5F8803000F0D2
:100D60001F062078E368E178C5F8B83000F0070086
:100D700040EA0640C5F8F001D5F8F021C1F30017AC
:100D800042F00042C1F3810342EA0772C1F340110D
:100D900042EA836343EA4173C5F8F031F8BDD0F805
:100DA000803023F003031943C0F88010704700001F
:100DB000304AD2F8843023F08063F0B5C2F8843032
:100DC000D2F8843423F08063C2F88434D2F88438B3
:100DD00023F08063C2F88438D2F8843C23F0806327
:100DE000C2F8843C0B7813F00305C3F381030CBFF6
:100DF00000274FF400671A0200241F4B53F82460A9
:100E0000D6F8843023F44073134301343B43042C5D
:100E1000C6F88430F1D14B68164A43F4000343F41A
:100E20000043C0F800328B6843F00103C0F804327D
:100E3000022D02BFD0F8043243F48033C0F80432EC
:100E4000D2F8843043F08063C2F88430D2F884341E
:100E500043F08063C2F88434D2F8843843F080636E
:100E6000C2F88438D2F8843C43F08063C2F8843CF2
:100E7000F0BD00BF004400409C16000830B50123BF
:100E8000D0F888508B4025EA0304137A8B40234323
:100E9000C0F8883092F90930002B19DB012907D1FD
:100EA000D0F8B03023F4F853C0F8B030082507E08C
:100EB00029B9D0F8B03023F01F03C0F8B0300025B6
:100EC00092F90930D0F8B040AB402343C0F8B030BD
:100ED000D0F8C84053682343C0F8C8308031136845
:100EE00040F8213030BD704743685B68184743685D
:100EF00070B5044693F8210002282BD161B35AB390
:100F0000A5682E7E4EBB93F823300120287623B1AE
:100F100023684FF40040C3F818010D468E1863682B
:100F2000B54293F823300BD023B12268D2F81431A4
:100F3000D904FBD4206815F8011BFFF765FDEEE727
:100F400023B12268D2F814311B05FBD5A368002019
:100F5000187670BD042070BD032070BD436870B565
:100F6000044693F8220002282DD171B36AB3A56814
:100F70006E7E5EBB93F824300120687623B123682F
:100F80004FF48040C3F818010D468E18B54216D0B4
:100F9000636893F82420236822B1D3F81421120740
:100FA000FBD406E09A6C12F4404FFBD04FF4404261
:100FB000DA642068FFF739FD05F8010BE6E7A3685E
:100FC0000020587670BD042070BD032070BD000065
:100FD00038B5164D164C174A28460421FFF7C6F9B6
:100FE00020461549FFF7DAFCE369144A23F00703AA
:100FF00043F00103E361236C23F00F0343F002038A
:10100000236428460521FFF7B1F92046082105226F
:10101000FFF7A8FD236C43F480432046236410218E
:101020000022FFF79FFD002038BD00BF008102486D
:1010300000000340D4160008F8160008EC1600085B
:1010400090F8303010B5044663B18268D2F8A4300D
:1010500043F00103C2F8A430806894F82A200021EC
:10106000FFF782FC94F8313073B1A268D2F8A43053
:1010700043F00403C2F8A430A06894F82B200221A6
:10108000BDE81040FFF770BC10BD90F8293013F098
:10109000FB0F0BD190F82E104268012303FA01F1E7
:1010A000D1608268D360032380F82930704790F8BC
:1010B00028300BB9FFF7E9BF704770B590F8296089
:1010C000022E044626D1006800F076F80546F0B9F5
:1010D000E168A068FFF731FCA368A28B5A63A3689C
:1010E000228BDA636368626A1A612046FFF7A8FF01
:1010F000206994F82C106269FFF738F994F82F30C2
:1011000084F829503BB12046FFF7D1FF03E084F873
:10111000296000E00125284670BD90F828300BB901
:10112000FFF7CBBF01207047204BF0B5D968057899
:1011300042788778C1F30221C1F1070EBEF1060F94
:1011400028BF4FF0060E01B10139012404FA01F362
:10115000013B04FA0EF403EA0706631E13408B40BA
:101160006AB2002A43EA06034FEA8303AFBF02F1E3
:10117000604205F00F050E4ADBB2A5BF02F56142E1
:10118000DBB2535582F80033C3786BB1027853B2A7
:10119000002BA1BF012102F01F0201FA02F25B093C
:1011A000A4BF044941F823200020F0BD00ED00E079
:1011B00014ED00E000E100E0437B10B504464BB9BC
:1011C0008068217BFFF7AAFBA3684FF48072DA6086
:1011D00001236373002010BDF8B5037E022B044683
:1011E00029D140692169FFF728FD271F002657F8FC
:1011F000043F93E80300FFF794FD3B680321186860
:10120000FFF7CDFD39680B7A4BB9606906F110051F
:10121000D0F880200123AB401343C0F88030013662
:101220000023042E4B721D46E1D1637E13B1606929
:10123000FFF728FD2576207EF8BD0000194B1A4ADD
:10124000D96821F4E0610904090C0A43DA6072B636
:10125000164A9A60BFF34F8F62B6D3F888201448BD
:1012600042F4700241F21401C3F88820425822F07F
:101270000F0242F0030242505A6922F010025A61F2
:101280005A6922F008025A615A6A22F480325A627C
:101290005A6A22F400325A625A6A22F480225A624E
:1012A000704700BF00ED00E00001FA0500000008F3
:1012B0000010005801230370002070470048704759
:1012C000001BB70030B5114D0FCD87B001AC0FC476
:1012D0002B68236001A8FFF7ABFA0020FFF7F4F8B2
:1012E0000020FFF7CDF80420FFF736F92021012078
:1012F000FFF756F90020FFF7CDF80120FFF740F97E
:101300000120FFF733F907B030BD00BFAC1700086C
:10131000F8B5037E022B044640F08B80C068FFF7CF
:101320005BFFE268A368054650691968002213460E
:10133000FFF79CFCE36861685869FFF739FD236893
:101340001E68B068717B3268FFF798FD336871687A
:101350009B78B268096803F00F03A03342F82310AA
:10136000E368327B5B69707B03EB82030122D3F875
:10137000801182400A43C3F8802163681B7A1B07EF
:1013800049D52369002B46D02B4A1E68D1685A687C
:101390009B68C1F30221C1F1070CBCF1060FF7B243
:1013A00028BF4FF0060C09B1481E00E00846012195
:1013B00001FA00FE0EF1FF3E01FA0CF10EEA030EF7
:1013C0004B1E134083407AB2002A4EEA03034FEAD1
:1013D0008303ADBF02F16042184A06F00F0602F522
:1013E0006142B9BFDBB29355DBB282F80033E368E8
:1013F000617E5869FFF762FC23691A6853B2002BBB
:10140000A1BF012102F01F0201FA02F25B09A4BF91
:101410000B4941F82320636903B19847A37E3BB190
:10142000E3685A69D2F8043243F40073C2F8043214
:101430002576207EF8BD00BF00ED00E014ED00E051
:1014400000E100E0C3685A69D2F8043243F4007343
:10145000C2F804327047036882689B7803F00F0378
:10146000C03352F8230080B27047000008B50F481F
:10147000FFF720FFC0B90E48FFF74FFEA0B90D4897
:10148000FFF732FD80B90C48FFF747FE60B90B4803
:10149000FFF743FE40B90A48FFF746FE20B9094866
:1014A000BDE80840FFF734BF08BD00BF5C01002065
:1014B00074000020000000200C00002040000020EC
:1014C0004017000804010020002383420CDA42F296
:1014D0001072013A06D000BF00BF00BF00BF00BFBE
:1014E00000BFF6E70133F0E77047000013B5144B77
:1014F000186800909B881348ADF8043000214FF421
:10150000806200F06DF8FFF7B1FF00B1FEE70E4812
:10151000FFF798FF0D4869460622FFF7E8FC4FF4F5
:101520007A70FFF7D1FF0A480A4CFFF794FF20605A
:101530004FF47A70FFF7C8FF044821460822ECE711
:10154000D0170008680100200401002000000020DE
:10155000200100206401002038B50B4C0B4D2146C2
:1015600028460822FFF7FAFC3123214628460822A4
:1015700023706370FFF7BBFC204600214FF48062AC
:10158000BDE8384000F02CB86801002000000020C1
:1015900070B50F4E0F4D761BB61018BF002405D046
:1015A000013455F8043B9847A642F9D10A4E0B4D39
:1015B000761BFFF798FCB61018BF002406D0013444
:1015C00055F8043B9847A642F9D170BD70BD00BFE5
:1015D0004001002040010020400100204001002087
:1015E00070B4840746D0541E002A41D0CDB20346C1
:1015F00002E0621EE4B3144603F8015B9A07F8D1D7
:10160000032C2ED9CDB245EA05250F2C45EA054518
:1016100019D903F110022646103E0F2E42F8105C35
:1016200042F80C5C42F8085C42F8045C02F11002DB
:10163000F2D8A4F1100222F00F0204F00F041032CD
:10164000032C13440DD91E462246043A032A46F8B9
:10165000045BFAD8221F22F003020432134404F080
:1016600003042CB1C9B21C4403F8011BA342FBD1F3
:1016700070BC704714460346C2E700BF0000020278
:101680000C0C0C0C080A030003000C000C000030CA
:101690000030003000300003000C00000044004027
:1016A00000480040004C004000500040F816000880
:1016B000D10F000800000000000000000000000042
:1016C0000000000000000000E01600080002020018
:1016D0000000000000000000010000000200000007
:1016E0000081024805000000EC1600089000000090
:1016F0000100000002000000004B0000000808018B
:10170000100000009800000000000100040000002C
:10171000000000000600000098000000000001002A
:101720000400000000000000060000009800000017
:10173000000001000400000000000000060000009E
:10174000593F000100000000000000000000000000
:101750000000000000000000000000000000000089
:101760000000000000000000000000000000000079
:101770000000000000000000000000000000000069
:101780000000000003000000000000000000000056
:101790000000000000000000000000000000000049
:1017A00000000000000000000000000050020401E2
:1017B0000000010000000000000001000101010123
:1017C0000500000000000000000000000000000014
:0817D0007374617274000000E3
:1017D80000000340AC16000840010020A8000020CB
:1017E80000400140004401403817000800830248C7
:1017F800041700083E4900007B920000881300008F
:101808000050000000020000030203000000000076
:10181800A8000020004001400043014010170008C4
:10182800008302482C1700083E4900007B92000004
:1018380088130000000500000002000004020200F6
:1018480000000000A80000200040014000410140C5
:101858002417000800830248181700083E490000B2
:101868007B920000881300000500000000020000C1
:101878000002000000000000000E2707040000001E
:1018880000400140000000000044004044170008E8
:1018980001020000B8000020E0000020F80000204D
:1018A800EC00002080170008004000400201000002
:1018B800004800405817000801020000005000408E
:1018C8006C17000801020000004C0040981700083F
:1018D800010200003C010020C0170008CC170008D6
:1018E800C400002000000000000000000204010005
:1018F8003001002060010020004C0040020300007D
:10190800020020000000000000FF0000200100206D
:0400000508000201EC
:00000001FF
